:020000040800F2
:10000000008001208D0C0008A90B0008AF0B000830
:10001000B50B0008BB0B0008C10B00080000000076
:10002000000000000000000000000000C70B0008F6
:10003000D50B000800000000E30B0008F10B0008DE
:10004000DD0C0008DD0C0008DD0C0008DD0C0008EC
:10005000DD0C0008DD0C0008DD0C0008DD0C0008DC
:10006000DD0C0008DD0C0008DD0C0008DD0C0008CC
:10007000DD0C0008DD0C0008DD0C0008DD0C0008BC
:10008000DD0C0008DD0C0008DD0C0008000000009D
:10009000000000000000000000000000DD0C00086F
:1000A000DD0C0008DD0C0008DD0C0008DD0C00088C
:1000B000DD0C0008DD0C0008DD0C0008DD0C00087C
:1000C000DD0C0008DD0C0008DD0C0008DD0C00086C
:1000D000DD0C0008DD0C0008DD0C0008000000004D
:1000E000DD0C0008DD0C0008DD0C0008000000003D
:1000F000000000000000000000000000DD0C00080F
:1001000000000000DD0C0008DD0C0008DD0C00081C
:1001100000000000000000000000000000000000DF
:10012000DD0C0008DD0C0008DD0C0008DD0C00080B
:10013000DD0C0008000000000000000000000000CE
:10014000000000000000000000000000DD0C0008BE
:10015000DD0C0008DD0C0008DD0C0008DD0C0008DB
:10016000DD0C0008DD0C00080000000000000000AD
:10017000000000000000000000000000000000007F
:1001800000000000DD0C000800000000000000007E
:04019000DD0C00087A
:1001A00010B5054C237833B9044B13B10448AFF3B1
:1001B00000800123237010BD7000002000000000AB
:1001C0001038000808B5034B1BB103490348AFF3CF
:1001D000008008BD000000007400002010380008F6
:1001E00001F0FF01102A2BDB10F0070F08D010F8E8
:1001F000013B013A8B422DD010F0070F42B3F6D1EC
:10020000F0B441EA012141EA014122F007047FF004
:1002100000070023F0E80256083C85EA010586EA5B
:10022000010685FA47F5A3FA87F586FA47F6A5FA97
:1002300087F68EB9EED1F0BC01F0FF0102F00702A3
:1002400032B110F8013B013A83EA010313B1F8D14E
:100250000020704701387047002D06BF354603382F
:10026000073815F0010F07D1013015F4807F02BF68
:10027000013015F4C03F0130F0BC0138704700BFB9
:1002800053B94AB9002908BF00281CBF4FF0FF31FD
:100290004FF0FF3000F074B9ADF1080C6DE904CEF9
:1002A00000F006F8DDF804E0DDE9022304B0704751
:1002B0002DE9F047089D04468E46002B4DD18A4219
:1002C000944669D9B2FA82F252B101FA02F3C2F14C
:1002D000200120FA01F10CFA02FC41EA030E9440DD
:1002E0004FEA1C48210CBEFBF8F61FFA8CF708FBFE
:1002F00016E341EA034306FB07F199420AD91CEBD6
:10030000030306F1FF3080F01F81994240F21C8107
:10031000023E63445B1AA4B2B3FBF8F008FB10334F
:1003200044EA034400FB07F7A7420AD91CEB040484
:1003300000F1FF3380F00A81A74240F20781644454
:10034000023840EA0640E41B00261DB1D4400023D9
:10035000C5E900433146BDE8F0878B4209D9002D3D
:1003600000F0EF800026C5E9000130463146BDE8C7
:10037000F087B3FA83F6002E4AD18B4202D3824231
:1003800000F2F980841A61EB030301209E46002DE0
:10039000E0D0C5E9004EDDE702B9FFDEB2FA82F235
:1003A000002A40F09280A1EB0C014FEA1C471FFA93
:1003B0008CFE0126200CB1FBF7F307FB131140EA7A
:1003C00001410EFB03F0884208D91CEB010103F147
:1003D000FF3802D2884200F2CB804346091AA4B209
:1003E000B1FBF7F007FB101144EA01440EFB00FEDD
:1003F000A64508D91CEB040400F1FF3102D2A64542
:1004000000F2BB800846A4EB0E0440EA03409CE7E0
:10041000C6F12007B34022FA07FC4CEA030C20FA8D
:1004200007F401FA06F31C43F9404FEA1C4900FAAD
:1004300006F3B1FBF9F8200C1FFA8CFE09FB18112A
:1004400040EA014108FB0EF0884202FA06F20BD99D
:100450001CEB010108F1FF3A80F08880884240F2ED
:100460008580A8F102086144091AA4B2B1FBF9F031
:1004700009FB101144EA014100FB0EFE8E4508D92C
:100480001CEB010100F1FF346CD28E456AD90238B1
:10049000614440EA0840A0FB0294A1EB0E01A14296
:1004A000C846A64656D353D05DB1B3EB080261EB04
:1004B0000E0101FA07F722FA06F3F1401F43C5E9DE
:1004C000007100263146BDE8F087C2F12003D84014
:1004D0000CFA02FC21FA03F3914001434FEA1C4756
:1004E0001FFA8CFEB3FBF7F007FB10360B0C43EA48
:1004F000064300FB0EF69E4204FA02F408D91CEBF8
:10050000030300F1FF382FD29E422DD902386344F5
:100510009B1B89B2B3FBF7F607FB163341EA034195
:1005200006FB0EF38B4208D91CEB010106F1FF38E4
:1005300016D28B4214D9023E6144C91A46EA0046DB
:1005400038E72E46284605E70646E3E61846F8E66D
:100550004B45A9D2B9EB020864EB0C0E0138A3E7B6
:100560004646EAE7204694E74046D1E7D0467BE797
:10057000023B614432E7304609E76444023842E70F
:10058000704700BF80B598B002AF00F0A9FB00F043
:1005900011F900F0DDF900F079F900F0AFF901226E
:1005A00040217A4800F078FE07F11C03784918468C
:1005B00002F0C0FC38653B6D9AB207F11C01642360
:1005C000744802F010F900224021704800F064FEE7
:1005D000642301227049714801F099FB01224021F6
:1005E0006A4800F059FE00224021684800F054FE9D
:1005F000642301226A49694801F089FB07F1080177
:1006000064230122654801F0BEFC012240215F48BD
:1006100000F042FE3B7A1A4607F11C036149184676
:1006200002F088FC38653B6D9AB207F11C01642327
:10063000584802F0D8F8AB233B72CD237B72EF23EE
:10064000BB720523FB7100224021504800F024FEBC
:10065000642301225449514801F059FBF91D6423D8
:1006600001224E4801F053FB07F1080164230322E5
:100670004A4801F04CFB01224021444800F00CFEA6
:1006800000233B7200237B720023BB72012387F897
:1006900057301BE0002240213C4800F0FDFD642360
:1006A00001223F493D4801F032FB07F10801642374
:1006B00001223A4801F067FC01224021334800F052
:1006C000EBFD3B7A03F0010387F8573097F857307A
:1006D000002BDFD1002240212C4800F0DDFD6423F7
:1006E000012232492D4801F012FBF91D6423012239
:1006F0002A4801F00CFB07F1080164230322274874
:1007000001F041FC01224021204800F0C5FD3B7A68
:100710001A467B7A1946BB7A07F11C0000930B46F8
:10072000234902F007FC38653B6D9AB207F11C01C2
:100730006423184802F057F800224021134800F0C3
:10074000ABFD642301221649144801F0E0FA07F1D9
:10075000080164230122114801F015FC0122402107
:100760000A4800F099FD3B7A1A4607F11C030D492F
:10077000184602F0DFFB38653B6D9AB207F11C01A9
:100780006423044802F02FF8FEE700BF0004024093
:1007900028380008E4000020573800088C000020AA
:1007A0005838000834380008563800085538000812
:1007B0004438000880B594B000AF07F12003302220
:1007C0000021184602F0AEFB07F10C0300221A606C
:1007D0005A609A60DA601A610023BB60294B1B6C77
:1007E000284A43F080531364264B1B6C03F080535C
:1007F000BB60BB6800237B60234B1B6823F4404332
:10080000214A43F4004313601F4B1B6803F4404329
:100810007B607B6802233B620123FB6210233B6306
:100820000223BB630023FB6310233B644FF4A873D4
:100830007B640423BB640723FB6407F12003184691
:1008400000F044FD0346002B01D000F0EFF80F2329
:10085000FB6002233B6100237B614FF48053BB614B
:100860000023FB6107F10C030221184600F0A6FFEC
:100870000346002B01D000F0D9F800BF5037BD4629
:1008800080BD00BF003802400070004080B500AF5E
:10089000184B194A1A60174B4FF482725A60154B65
:1008A0004FF480629A60134B0022DA60114B0022F1
:1008B0001A61104B00225A610E4B4FF400729A617C
:1008C0000C4B0022DA610B4B00221A62094B00220A
:1008D0005A62084B00229A62064B0A22DA620548E5
:1008E00001F08CF90346002B01D000F09FF800BF07
:1008F00080BD00BF8C0000200030014080B500AFFB
:10090000114B124A1A60104B4FF4E1325A600E4BF1
:1009100000229A600C4B0022DA600B4B00221A6115
:10092000094B0C225A61084B00229A61064B0022A7
:10093000DA61054801F00AFF0346002B01D000F000
:1009400075F800BF80BD00BFE400002000440040F7
:1009500080B58AB000AF07F1140300221A605A6014
:100960009A60DA601A6100233B612D4B1B6B2C4AA5
:1009700043F0040313632A4B1B6B03F004033B6136
:100980003B690023FB60264B1B6B254A43F0800329
:100990001363234B1B6B03F08003FB60FB68002396
:1009A000BB601F4B1B6B1E4A43F0010313631C4BC0
:1009B0001B6B03F00103BB60BB6800237B60184B1B
:1009C0001B6B174A43F002031363154B1B6B03F0B9
:1009D00002037B607B6800222021124800F05CFC4F
:1009E0004FF400537B614FF40413BB610023FB61A0
:1009F00007F1140319460C4800F0CAFA20237B6162
:100A00000123BB610023FB6100233B6207F1140358
:100A10001946044800F0BCFA00BF2837BD4680BD27
:100A200000380240000002400008024080B400AFDD
:100A300072B600BFFEE7000080B582B000AF0023B1
:100A40007B60104B5B6C0F4A43F4804353640D4B47
:100A50005B6C03F480437B607B6800233B60094B45
:100A60001B6C084A43F080531364064B1B6C03F065
:100A700080533B603B68072000F056FA00BF083700
:100A8000BD4680BD0038024080B58AB000AF7860B6
:100A900007F1140300221A605A609A60DA601A6142
:100AA0007B681B68194A93422BD100233B61184B8A
:100AB0005B6C174A43F480535364154B5B6C03F42F
:100AC00080533B613B690023FB60114B1B6B104A59
:100AD00043F0020313630E4B1B6B03F00203FB6036
:100AE000FB6838237B610223BB610023FB61032386
:100AF0003B6205237B6207F114031946054800F0A9
:100B000047FA00BF2837BD4680BD00BF0030014016
:100B1000003802400004024080B58AB000AF78601F
:100B200007F1140300221A605A609A60DA601A61B1
:100B30007B681B68194A93422BD100233B61184BF9
:100B40001B6C174A43F400331364154B1B6C03F4FE
:100B500000333B613B690023FB60114B1B6B104A68
:100B600043F0010313630E4B1B6B03F00103FB60A7
:100B7000FB680C237B610223BB610023FB61002324
:100B80003B6207237B6207F114031946054800F016
:100B9000FFF900BF2837BD4680BD00BF00440040BC
:100BA000003802400000024080B400AFFEE780B48D
:100BB00000AFFEE780B400AFFEE780B400AFFEE711
:100BC00080B400AFFEE780B400AF00BFBD465DF863
:100BD000047B704780B400AF00BFBD465DF8047B66
:100BE000704780B400AF00BFBD465DF8047B70471E
:100BF00080B500AF00F0C6F800BF80BD80B586B0FC
:100C000000AF7860144A154BD31A7B617B693B6156
:100C1000134B1B68002B02D1114B124A1A60104B68
:100C20001A687B6813443A699A4207D202F050F975
:100C300003460C221A604FF0FF3309E0084B1B6893
:100C4000FB60074B1A687B681344054A1360FB6816
:100C500018461837BD4680BD008001200004000002
:100C6000280100204001002080B400AF064BD3F8DB
:100C70008830054A43F47003C2F8883000BFBD468F
:100C80005DF8047B704700BF00ED00E0DFF834D072
:100C90000D480E490E4A002302E0D458C4500433D4
:100CA000C4188C42F9D30B4A0B4C002301E01360AB
:100CB0000432A242FBD3FFF7D7FF02F00FF9FFF790
:100CC00061FC7047008001200000002070000020BF
:100CD000B83800087000002040010020FEE7000046
:100CE00080B500AF0E4B1B680D4A43F400731360D0
:100CF0000B4B1B680A4A43F480631360084B1B6864
:100D0000074A43F480731360032000F00DF90020BC
:100D100000F008F8FFF790FE0023184680BD00BFE2
:100D2000003C024080B582B000AF7860124B1A6878
:100D3000124B1B7819464FF47A73B3FBF1F3B2FBF5
:100D4000F3F3184600F017F90346002B01D00123F6
:100D50000EE07B680F2B0AD8002279684FF0FF3035
:100D600000F0EDF8064A7B681360002300E00123E1
:100D700018460837BD4680BD00000020080000204E
:100D80000400002080B400AF064B1B781A46064BC7
:100D90001B681344044A136000BFBD465DF8047B22
:100DA000704700BF080000202C01002080B400AF75
:100DB000034B1B681846BD465DF8047B704700BFB7
:100DC0002C01002080B485B000AF78607B6803F010
:100DD0000703FB600C4BDB68BB60BA684FF6FF0390
:100DE0001340BB60FB681A02BB68134343F0BF6348
:100DF00043F40033BB60044ABB68D36000BF1437C0
:100E0000BD465DF8047B704700ED00E080B400AFA4
:100E1000044BDB681B0A03F007031846BD465DF868
:100E2000047B704700ED00E080B483B000AF034660
:100E30003960FB7197F90730002B0ADB3B68DAB2A7
:100E40000C4997F907301201D2B20B4483F8002302
:100E50000AE03B68DAB20849FB7903F00F03043B70
:100E60001201D2B20B441A7600BF0C37BD465DF8B2
:100E7000047B704700E100E000ED00E080B489B041
:100E800000AFF860B9607A60FB6803F00703FB61AC
:100E9000FB69C3F10703042B28BF0423BB61FB6973
:100EA0000433062B02D9FB69033B00E000237B617E
:100EB0004FF0FF32BB6902FA03F3DA43BB681A4012
:100EC0007B699A404FF0FF317B6901FA03F3D94304
:100ED0007B680B40134318462437BD465DF8047BFE
:100EE0007047000080B582B000AF78607B68013B3E
:100EF000B3F1807F01D301230FE00A4A7B68013BF5
:100F000053600F214FF0FF30FFF78EFF054B00229B
:100F10009A60044B07221A60002318460837BD4622
:100F200080BD00BF10E000E080B582B000AF786007
:100F30007868FFF747FF00BF0837BD4680BD80B522
:100F400086B000AF0346B9607A60FB7300237B6113
:100F5000FFF75CFF78617A68B9687869FFF78EFF00
:100F6000024697F90F3011461846FFF75DFF00BFA4
:100F70001837BD4680BD80B582B000AF7860786814
:100F8000FFF7B0FF034618460837BD4680BD000096
:100F900080B489B000AF7860396000237B610023A2
:100FA0003B610023BB610023FB6159E10122FB6926
:100FB00002FA03F37B613B681B687A6913403B616B
:100FC0003A697B699A4240F048813B685B6803F06C
:100FD0000303012B05D03B685B6803F00303022B7E
:100FE00030D17B689B68BB61FB695B00032202FA1E
:100FF00003F3DB43BA691340BB613B68DA68FB6902
:101000005B0002FA03F3BA691343BB617B68BA69F8
:101010009A607B685B68BB610122FB6902FA03F39B
:10102000DB43BA691340BB613B685B681B0903F093
:101030000102FB6902FA03F3BA691343BB617B68DF
:10104000BA695A603B685B6803F00303032B17D04F
:101050007B68DB68BB61FB695B00032202FA03F378
:10106000DB43BA691340BB613B689A68FB695B006C
:1010700002FA03F3BA691343BB617B68BA69DA60A9
:101080003B685B6803F00303022B23D1FB69DA089A
:101090007B68083253F82230BB61FB6903F0070319
:1010A0009B000F2202FA03F3DB43BA691340BB61D2
:1010B0003B681A69FB6903F007039B0002FA03F31C
:1010C000BA691343BB61FB69DA087B680832B96906
:1010D00043F822107B681B68BB61FB695B0003223D
:1010E00002FA03F3DB43BA691340BB613B685B68F8
:1010F00003F00302FB695B0002FA03F3BA691343CE
:10110000BB617B68BA691A603B685B6803F4403373
:10111000002B00F0A2800023FB60574B5B6C564A0B
:1011200043F480435364544B5B6C03F48043FB6093
:10113000FB68524AFB699B08023352F82330BB61BB
:10114000FB6903F003039B000F2202FA03F3DB4366
:10115000BA691340BB617B68494A934219D07B68E6
:10116000484A934213D07B68474A93420DD07B682C
:10117000464A934207D07B68454A934201D10423F3
:1011800008E0072306E0032304E0022302E0012332
:1011900000E00023FA6902F0030292009340BA696A
:1011A0001343BB613549FB699B080233BA6941F8B7
:1011B0002320384B9B68BB613B69DB43BA69134012
:1011C000BB613B685B6803F48013002B03D0BA69F2
:1011D0003B691343BB612F4ABB6993602D4BDB68AE
:1011E000BB613B69DB43BA691340BB613B685B6829
:1011F00003F40013002B03D0BA693B691343BB61AE
:10120000244ABB69D360234B5B68BB613B69DB430A
:10121000BA691340BB613B685B6803F40033002B81
:1012200003D0BA693B691343BB611A4ABB69536077
:10123000184B1B68BB613B69DB43BA691340BB6158
:101240003B685B6803F48033002B03D0BA693B69C9
:101250001343BB610F4ABB691360FB690133FB6138
:10126000FB690F2B7FF6A2AE00BF00BF2437BD463F
:101270005DF8047B704700BF003802400038014031
:10128000000002400004024000080240000C02403E
:1012900000100240003C014080B483B000AF786091
:1012A0000B467B8013467B707B78002B03D07A88BB
:1012B0007B689A6103E07B881A047B689A6100BFAF
:1012C0000C37BD465DF8047B7047000080B586B0E2
:1012D00000AF78607B68002B01D1012367E27B6857
:1012E0001B6803F00103002B75D0884B9B6803F04B
:1012F0000C03042B0CD0854B9B6803F00C03082BCC
:1013000012D1824B5B6803F48003B3F5800F0BD1DD
:101310007E4B1B6803F40033002B5BD07B685B685B
:10132000002B57D1012342E27B685B68B3F5803F15
:1013300006D1764B1B68754A43F4803313601DE079
:101340007B685B68B3F5A02F0CD1704B1B686F4AAC
:1013500043F4802313606D4B1B686C4A43F4803365
:1013600013600BE0694B1B68684A23F480331360F9
:10137000664B1B68654A23F4802313607B685B68B7
:10138000002B13D0FFF712FD386108E0FFF70EFDC8
:1013900002463B69D31A642B01D9032307E25B4B56
:1013A0001B6803F40033002BF0D014E0FFF7FEFCC1
:1013B000386108E0FFF7FAFC02463B69D31A642B58
:1013C00001D90323F3E1514B1B6803F40033002BD5
:1013D000F0D100E000BF7B681B6803F00203002B24
:1013E00063D04A4B9B6803F00C03002B0BD0474B98
:1013F0009B6803F00C03082B1CD1444B5B6803F47F
:101400008003002B16D1414B1B6803F00203002B15
:1014100005D07B68DB68012B01D00123C7E13B4B82
:101420001B6823F0F8027B681B69DB003749134314
:101430000B603AE07B68DB68002B20D0344B012244
:101440001A60FFF7B3FC386108E0FFF7AFFC024613
:101450003B69D31A022B01D90323A8E12B4B1B684C
:1014600003F00203002BF0D0284B1B6823F0F80296
:101470007B681B69DB00254913430B6015E0244B97
:1014800000221A60FFF792FC386108E0FFF78EFC3B
:1014900002463B69D31A022B01D9032387E11B4B78
:1014A0001B6803F00203002BF0D17B681B6803F07C
:1014B0000803002B36D07B685B69002B16D0154BD8
:1014C00001221A60FFF772FC386108E0FFF76EFC3A
:1014D00002463B69D31A022B01D9032367E10B4B68
:1014E0005B6F03F00203002BF0D01BE0094B0022DE
:1014F0001A60FFF75BFC38610EE0FFF757FC02460D
:101500003B69D31A022B07D9032350E1003802406C
:1015100000004742800E4742884B5B6F03F0020396
:10152000002BEAD17B681B6803F00403002B00F05A
:1015300097800023FB75814B1B6C03F08053002BBD
:101540000FD10023BB607D4B1B6C7C4A43F0805362
:1015500013647A4B1B6C03F08053BB60BB680123A0
:10156000FB75774B1B6803F48073002B18D1744B09
:101570001B68734A43F480731360FFF717FC3861EC
:1015800008E0FFF713FC02463B69D31A022B01D98E
:1015900003230CE16A4B1B6803F48073002BF0D02B
:1015A0007B689B68012B06D1644B1B6F634A43F039
:1015B000010313671CE07B689B68052B0CD15F4B14
:1015C0001B6F5E4A43F0040313675C4B1B6F5B4A5F
:1015D00043F0010313670BE0584B1B6F574A23F08E
:1015E00001031367554B1B6F544A23F00403136721
:1015F0007B689B68002B15D0FFF7D8FB38610AE0A9
:10160000FFF7D4FB02463B69D31A41F2883293427A
:1016100001D90323CBE0494B1B6F03F00203002BDE
:10162000EED014E0FFF7C2FB38610AE0FFF7BEFB23
:1016300002463B69D31A41F28832934201D903230F
:10164000B5E03E4B1B6F03F00203002BEED1FB7D98
:10165000012B05D1394B1B6C384A23F0805313649E
:101660007B689B69002B00F0A180344B9B6803F0E2
:101670000C03082B5CD07B689B69022B41D1314B5A
:1016800000221A60FFF792FB386108E0FFF78EFB3B
:1016900002463B69D31A022B01D9032387E0274B6B
:1016A0001B6803F00073002BF0D17B68DA697B685C
:1016B0001B6A1A437B685B6A9B011A437B689B6ABF
:1016C0005B08013B1B041A437B68DB6A1B061B4952
:1016D00013434B601B4B01221A60FFF767FB386115
:1016E00008E0FFF763FB02463B69D31A022B01D9DE
:1016F00003235CE0114B1B6803F00073002BF0D058
:1017000054E0104B00221A60FFF750FB386108E0EC
:10171000FFF74CFB02463B69D31A022B01D9032386
:1017200045E0064B1B6803F00073002BF0D13DE051
:101730007B689B69012B07D1012338E00038024008
:1017400000700040600047421B4B5B68FB607B6899
:101750009B69012B28D0FB6803F480027B68DB695E
:101760009A4221D1FB6803F03F027B681B6A9A42D0
:101770001AD1FA6847F6C07313407A68526A920128
:10178000934211D1FB6803F440327B689B6A5B088B
:10179000013B1B049A4207D1FB6803F070627B682F
:1017A000DB6A1B069A4201D0012300E000231846A1
:1017B0001837BD4680BD00BF0038024080B584B0F8
:1017C00000AF786039607B68002B01D10123CCE049
:1017D000684B1B6803F007033A689A420CD9654BC3
:1017E0003A68D2B21A70634B1B6803F007033A6879
:1017F0009A4201D00123B8E07B681B6803F0020322
:10180000002B20D07B681B6803F00403002B05D05D
:10181000594B9B68584A43F4E05393607B681B68BC
:1018200003F00803002B05D0534B9B68524A43F446
:1018300060439360504B9B6823F0F0027B689B6889
:101840004D4913438B607B681B6803F00103002B39
:1018500044D07B685B68012B07D1474B1B6803F4BE
:101860000033002B19D101237FE07B685B68022BDA
:1018700003D07B685B68032B07D13F4B1B6803F0E9
:101880000073002B09D101236FE03B4B1B6803F071
:101890000203002B01D1012367E0374B9B6823F043
:1018A00003027B685B68344913438B60FFF77EFA61
:1018B000F8600AE0FFF77AFA0246FB68D31A41F2B1
:1018C0008832934201D903234FE02B4B9B6803F0EE
:1018D0000C027B685B689B009A42EBD1254B1B682E
:1018E00003F007033A689A420CD2224B3A68D2B20C
:1018F0001A70204B1B6803F007033A689A4201D024
:10190000012332E07B681B6803F00403002B08D03E
:10191000194B9B6823F4E0527B68DB68164913433C
:101920008B607B681B6803F00803002B09D0124B07
:101930009B6823F460427B681B69DB000E491343FC
:101940008B6000F021F802460B4B9B681B0903F0EB
:101950000F030A49CB5C22FA03F3094A1360094BCF
:101960001B681846FFF7DEF9002318461037BD46FE
:1019700080BD00BF003C0240003802405C380008D7
:1019800000000020040000202DE9B04F94B000AF0B
:1019900000237B640023FB6400233B640023BB64BF
:1019A000794B9B6803F00C03082B0DD0082B00F239
:1019B000E180002B02D0042B03D0DBE0734BBB642F
:1019C000DBE0734BBB64D8E06F4B5B6803F03F0315
:1019D0007B646D4B5B6803F48003002B63D06A4B20
:1019E0005B689B090022BB63FA63BB6BC3F308030C
:1019F0003B6300237B63D7E90C4522462B464FF01F
:101A000000004FF00001590141EAD2615001024645
:101A10000B462146511A3961294663EB01037B616C
:101A20004FF000024FF00003D7E904AB59468B0199
:101A3000514643EA916351468A015146B2EB01088F
:101A4000594663EB01094FF000024FF000034FEAE3
:101A5000C90343EA58734FEAC802904699462346A1
:101A600018EB0303BB602B4649EB0303FB604FF00D
:101A700000024FF00003D7E9024529464B022146F8
:101A800043EAD15321464A02104619467B6C002294
:101A9000BB62FA62D7E90A23FEF7F2FB02460B4665
:101AA0001346FB6458E0384B5B689B0900221846DC
:101AB0001146C0F308033B6200237B62D7E9088923
:101AC00042464B464FF000004FF00001590141EAF9
:101AD000D261500102460B464146B2EB010A49462B
:101AE00063EB010B4FF000024FF000034FEA8B1342
:101AF00043EA9A634FEA8A12B2EB0A0463EB0B05DE
:101B00004FF000024FF00003EB0043EA5473E20091
:101B100014461D464346E3183B604B4645EB030322
:101B20007B604FF000024FF00003D7E900452946E3
:101B30008B02214643EA915321468A0210461946F8
:101B40007B6C0022BB61FA61D7E90623FEF798FBA4
:101B500002460B461346FB640B4B5B681B0C03F001
:101B6000030301335B003B64FA6C3B6CB2FBF3F3A1
:101B7000BB6402E0054BBB6400BFBB6C184650372A
:101B8000BD46BDE8B08F00BF003802400024F4001D
:101B900000127A0080B400AF034B1B681846BD46A4
:101BA0005DF8047B704700BF0000002080B500AFE7
:101BB000FFF7F0FF0246054B9B689B0A03F0070303
:101BC0000349CB5C22FA03F3184680BD003802407B
:101BD0006C38000880B500AFFFF7DCFF0246054B0C
:101BE0009B685B0B03F007030349CB5C22FA03F30A
:101BF000184680BD003802406C38000880B582B0BD
:101C000000AF78607B68002B01D101237BE07B680B
:101C10005B6A002B08D17B685B68B3F5827F09D0D3
:101C20007B680022DA6105E07B6800221A617B682C
:101C300000225A617B6800229A627B6893F85130D7
:101C4000DBB2002B06D17B68002283F85020786835
:101C5000FEF71AFF7B68022283F851207B681B681D
:101C60001A687B681B6822F040021A607B685B6818
:101C700003F482727B689B6803F404431A437B6815
:101C8000DB6803F400631A437B681B6903F00203FB
:101C90001A437B685B6903F001031A437B689B6905
:101CA00003F400731A437B68DB6903F038031A43BB
:101CB0007B681B6A03F0800342EA03017B689B6A2E
:101CC00003F400527B681B680A431A607B689B69B7
:101CD0001B0C03F004017B685B6A03F010027B6855
:101CE0001B680A435A607B681B68DA697B681B685B
:101CF00022F40062DA617B6800225A657B68012267
:101D000083F85120002318460837BD4680BD80B5B2
:101D100088B000AFF860B9603B601346FB800023D9
:101D2000FB77FB6893F85030012B01D1022326E1A9
:101D3000FB68012283F85020FFF738F8B861FB8870
:101D4000FB82FB6893F85130DBB2012B02D00223F7
:101D5000FB770BE1BB68002B02D0FB88002B02D184
:101D60000123FB7702E1FB68032283F85120FB6823
:101D700000225A65FB68BA681A63FB68FA889A867B
:101D8000FB68FA88DA86FB6800229A63FB68002207
:101D90009A87FB680022DA87FB6800225A64FB6896
:101DA00000221A64FB689B68B3F5004F0FD1FB68F3
:101DB0001B681A68FB681B6822F040021A60FB6807
:101DC0001B681A68FB681B6842F480421A60FB6853
:101DD0001B681B6803F04003402B07D0FB681B689F
:101DE0001A68FB681B6842F040021A60FB68DB68F7
:101DF000B3F5006F4BD1FB685B68002B02D0FB8A08
:101E0000012B3ED1FB681B6B1A88FB681B68DA60EC
:101E1000FB681B6B9A1CFB681A63FB68DB8E9BB22A
:101E2000013B9AB2FB68DA862BE0FB681B689B6873
:101E300003F00203022B12D1FB681B6B1A88FB68AC
:101E40001B68DA60FB681B6B9A1CFB681A63FB68F3
:101E5000DB8E9BB2013B9AB2FB68DA8611E0FEF79B
:101E6000A5FF0246BB69D31A3A689A4203D83B6879
:101E7000B3F1FF3F02D13B68002B02D10323FB7774
:101E800074E0FB68DB8E9BB2002BCED14CE0FB688C
:101E90005B68002B02D0FB8A012B40D1FB681A6BD8
:101EA000FB681B680C3312781A70FB681B6B5A1C9A
:101EB000FB681A63FB68DB8E9BB2013B9AB2FB683E
:101EC000DA862CE0FB681B689B6803F00203022B98
:101ED00013D1FB681A6BFB681B680C3312781A70FD
:101EE000FB681B6B5A1CFB681A63FB68DB8E9BB29A
:101EF000013B9AB2FB68DA8611E0FEF757FF024613
:101F0000BB69D31A3A689A4203D83B68B3F1FF3FE2
:101F100002D13B68002B02D10323FB7726E0FB684C
:101F2000DB8E9BB2002BCDD1BA693968F86800F01E
:101F3000CBFB0346002B02D0FB6820225A65FB68CE
:101F40009B68002B0AD100233B61FB681B68DB68A0
:101F50003B61FB681B689B683B613B69FB685B6D91
:101F6000002B02D00123FB7700E000BFFB680122B9
:101F700083F85120FB68002283F85020FB7F18462D
:101F80002037BD4680BD80B588B002AFF860B9602B
:101F90003B601346FB800023FB75FB685B68B3F571
:101FA000827F12D1FB689B68002B0ED1FB68042254
:101FB00083F85120FA883B6800931346BA68B968E1
:101FC000F86800F0F1F80346EAE0FB6893F8503057
:101FD000012B01D10223E3E0FB68012283F85020AA
:101FE000FEF7E4FE3861FB6893F85130DBB2012B59
:101FF00002D00223FB75CAE0BB68002B02D0FB882D
:10200000002B02D10123FB75C1E0FB68042283F899
:102010005120FB6800225A65FB68BA689A63FB6826
:10202000FA889A87FB68FA88DA87FB6800221A63C5
:10203000FB6800229A86FB680022DA86FB68002291
:102040001A64FB6800225A64FB689B68B3F5004F72
:102050000FD1FB681B681A68FB681B6822F04002FE
:102060001A60FB681B681A68FB681B6822F48042D0
:102070001A60FB681B681B6803F04003402B07D005
:10208000FB681B681A68FB681B6842F040021A6014
:10209000FB68DB68002B62D12EE0FB681B689B6845
:1020A00003F00103012B15D1FB681B6803F10C023F
:1020B000FB689B6B1278D2B21A70FB689B6B5A1C40
:1020C000FB689A63FB68DB8F9BB2013B9AB2FB68AB
:1020D000DA8711E0FEF76AFE02463B69D31A3A68D6
:1020E0009A4203D83B68B3F1FF3F02D13B68002B13
:1020F00002D10323FB754AE0FB68DB8F9BB2002B08
:10210000CBD131E0FB681B689B6803F00103012B16
:1021100013D1FB681B68DA68FB689B6B92B21A806C
:10212000FB689B6B9A1CFB689A63FB68DB8F9BB216
:10213000013B9AB2FB68DA8711E0FEF737FE0246F0
:102140003B69D31A3A689A4203D83B68B3F1FF3F20
:1021500002D13B68002B02D10323FB7517E0FB681B
:10216000DB8F9BB2002BCDD13A693968F86800F05B
:1021700045FA0346002B02D0FB6820225A65FB6813
:102180005B6D002B02D00123FB7500E000BFFB68F4
:10219000012283F85120FB68002283F85020FB7D48
:1021A00018461837BD4680BD80B58CB000AFF860CA
:1021B000B9607A607B800123FB62002387F82B30B3
:1021C000FB6893F85030012B01D102238AE1FB68B0
:1021D000012283F85020FEF7E9FD7862FB6893F84E
:1021E000513087F82330FB685B68FB617B887B8319
:1021F00097F82330012B0FD0FB69B3F5827F07D10D
:10220000FB689B68002B03D197F82330042B03D085
:10221000022387F82B305BE1BB68002B05D07B687D
:10222000002B02D07B88002B03D1012387F82B30B1
:102230004EE1FB6893F85130DBB2042B03D0FB680E
:10224000052283F85120FB6800225A65FB687A68F2
:102250009A63FB687A88DA87FB687A889A87FB68D2
:10226000BA681A63FB687A88DA86FB687A889A8685
:10227000FB6800221A64FB6800225A64FB681B6832
:102280001B6803F04003402B07D0FB681B681A68EB
:10229000FB681B6842F040021A60FB68DB68B3F51C
:1022A000006F78D1FB685B68002B02D07B8B012B21
:1022B00066D1FB681B6B1A88FB681B68DA60FB68D9
:1022C0001B6B9A1CFB681A63FB68DB8E9BB2013B9D
:1022D0009AB2FB68DA8653E0FB681B689B6803F0E0
:1022E0000203022B1BD1FB68DB8E9BB2002B16D0A6
:1022F000FB6A012B13D1FB681B6B1A88FB681B68F8
:10230000DA60FB681B6B9A1CFB681A63FB68DB8E48
:102310009BB2013B9AB2FB68DA860023FB62FB6842
:102320001B689B6803F00103012B19D1FB68DB8F4D
:102330009BB2002B14D0FB681B68DA68FB689B6BB0
:1023400092B21A80FB689B6B9A1CFB689A63FB68CD
:10235000DB8F9BB2013B9AB2FB68DA870123FB62F9
:10236000FEF724FD02467B6AD31ABA6B9A4207D85D
:10237000BB6BB3F1FF3F03D0032387F82B30A7E0FB
:10238000FB68DB8E9BB2002BA6D1FB68DB8F9BB278
:10239000002BA1D17CE0FB685B68002B02D07B8B1B
:1023A000012B6BD1FB681A6BFB681B680C3312782E
:1023B0001A70FB681B6B5A1CFB681A63FB68DB8E88
:1023C0009BB2013B9AB2FB68DA8657E0FB681B6858
:1023D0009B6803F00203022B1CD1FB68DB8E9BB2CF
:1023E000002B17D0FB6A012B14D1FB681A6BFB681A
:1023F0001B680C3312781A70FB681B6B5A1CFB6845
:102400001A63FB68DB8E9BB2013B9AB2FB68DA86EB
:102410000023FB62FB681B689B6803F00103012B30
:1024200019D1FB68DB8F9BB2002B14D0FB681B68B3
:10243000DA68FB689B6BD2B21A70FB689B6B5A1C04
:10244000FB689A63FB68DB8F9BB2013B9AB2FB6827
:10245000DA870123FB62FEF7A9FC02467B6AD31AE6
:10246000BA6B9A4203D8BB6BB3F1FF3F02D1BB6B8F
:10247000002B03D1032387F82B3029E0FB68DB8E88
:102480009BB2002BA2D1FB68DB8F9BB2002B9DD1AE
:102490007A6AB96BF86800F017F90346002B06D08A
:1024A000012387F82B30FB6820225A6510E0FB6877
:1024B0009B68002B0BD100237B61FB681B68DB68EA
:1024C0007B61FB681B689B687B617B6900E000BFE8
:1024D000FB68012283F85120FB68002283F850201A
:1024E00097F82B3018463037BD4680BD80B588B090
:1024F00000AFF860B9603B601346FB71FEF756FC15
:102500000246BB6A9B1A3A681344FB61FEF74EFC15
:10251000B861394B1B685B011B0DFA6902FB03F3C1
:102520007B6154E03B68B3F1FF3F50D0FEF73EFCC7
:102530000246BB69D31AFA699A4202D9FB69002B99
:102540003DD1FB681B685A68FB681B6822F0E002FB
:102550005A60FB685B68B3F5827F11D1FB689B68AA
:10256000B3F5004F04D0FB689B68B3F5806F07D1CB
:10257000FB681B681A68FB681B6822F040021A603F
:10258000FB689B6AB3F5005F0FD1FB681B681A6894
:10259000FB681B6822F400521A60FB681B681A680B
:1025A000FB681B6842F400521A60FB68012283F842
:1025B0005120FB68002283F85020032317E07B6939
:1025C000002B01D10023FB617B69013B7B61FB6830
:1025D0001B689A68BB681340BA689A420CBF012313
:1025E0000023DBB21A46FB799A429BD1002318469E
:1025F0002037BD4680BD00BF0000002080B586B0FA
:1026000002AFF860B9607A60FB685B68B3F5827FFF
:1026100011D1FB689B68B3F5004F04D0FB689B6841
:10262000B3F5806F07D1FB681B681A68FB681B68ED
:1026300022F040021A60FB685B68B3F5827F2AD102
:10264000FB689B68B3F5806F12D07B680093BB6812
:1026500000228021F868FFF749FF0346002B2DD0A8
:10266000FB685B6D43F02002FB685A65032326E09C
:102670007B680093BB6800220121F868FFF736FFF2
:102680000346002B1AD0FB685B6D43F02002FB6809
:102690005A65032313E07B680093BB680022012185
:1026A000F868FFF723FF0346002B07D0FB685B6D3C
:1026B00043F02002FB685A65032300E0002318461C
:1026C0001037BD4680BD000080B588B002AFF8600D
:1026D000B9607A601B4B1B681B4AA2FB03235B0D8E
:1026E0004FF47A7202FB03F37B61FB685B68B3F51E
:1026F000827F12D17B680093BB6800228021F8683A
:10270000FFF7F4FE0346002B16D0FB685B6D43F029
:102710002002FB685A6503230FE07B69002B0AD077
:102720007B69013B7B61FB681B689B6803F080034E
:10273000802BF2D000E000BF002318461837BD46BA
:1027400080BD00BF00000020819F5E1680B582B072
:1027500000AF78607B68002B01D101233FE07B68EC
:1027600093F83D30DBB2002B06D17B68002283F862
:102770003C207868FEF7D0F97B68242283F83D205E
:102780007B681B68DA687B681B6822F40052DA6099
:10279000786800F029F97B681B681A697B681B68F8
:1027A00022F490421A617B681B685A697B681B6837
:1027B00022F02A025A617B681B68DA687B681B6812
:1027C00042F40052DA607B6800221A647B6820229F
:1027D00083F83D207B68202283F83E2000231846A2
:1027E0000837BD4680BD80B58AB002AFF860B960D9
:1027F0003B601346FB8000237B61FB6893F83D3010
:10280000DBB2202B7CD1BB68002B02D0FB88002BD5
:1028100001D1012375E0FB6893F83C30012B01D115
:1028200002236EE0FB68012283F83C20FB68002253
:102830001A64FB68212283F83D20FEF7B7FA78611D
:10284000FB68FA889A84FB68FA88DA84FB689B68DC
:10285000B3F5805F08D1FB681B69002B04D100230E
:10286000FB61BB68BB6103E0BB68FB610023BB612C
:10287000FB68002283F83C202AE03B6800937B69D8
:1028800000228021F86800F040F80346002B01D0B8
:10289000032336E0FB69002B0BD1BB691B881A466A
:1028A000FB681B68C2F308025A60BB690233BB6154
:1028B00007E0FB691A78FB681B685A60FB69013303
:1028C000FB61FB68DB8C9BB2013B9AB2FB68DA844C
:1028D000FB68DB8C9BB2002BCFD13B6800937B69FC
:1028E00000224021F86800F010F80346002B01D0C8
:1028F000032306E0FB68202283F83D20002300E04C
:10290000022318462037BD4680BD80B590B000AF89
:10291000F860B9603B601346FB7150E0BB6CB3F1EB
:10292000FF3F4CD0BB6C002B07D0FEF73FFA0246AE
:102930003B68D31ABA6C9A4241D2FB681B680C33CD
:10294000BB62BB6A53E8003F7B627B6A23F4D073AF
:10295000FB63FB681B680C33FA6B7A633B63396B70
:102960007A6B41E80023FB62FB6A002BE5D1FB6830
:102970001B6814337B617B6953E8003F3B613B6913
:1029800023F00103BB63FB681B681433BA6B3A6224
:10299000FB61F9693A6A41E80023BB61BB69002B1E
:1029A000E5D1FB68202283F83D20FB68202283F8D4
:1029B0003E20FB68002283F83C2003230FE0FB68E5
:1029C0001B681A68BB681340BA689A420CBF01239F
:1029D0000023DBB21A46FB799A429FD000231846A7
:1029E0004037BD4680BD00002DE9B04FC0B000AFFC
:1029F000C7F8F400D7F8F4301B681B6923F4405083
:102A0000D7F8F430D968D7F8F4301A6840EA0103EF
:102A10001361D7F8F4309A68D7F8F4301B691A4379
:102A2000D7F8F4305B691A43D7F8F430DB69134305
:102A3000C7F8F830D7F8F4301B68DB6823F4164188
:102A400021F00C01D7F8F4301A68D7F8F8300B43AE
:102A5000D360D7F8F4301B685B6923F44070D7F873
:102A6000F4309969D7F8F4301A6840EA01035361E9
:102A7000D7F8F4301A688F4B9A4205D0D7F8F43063
:102A80001A688D4B9A4204D1FFF7A4F8C7F8FC00EE
:102A900003E0FFF78BF8C7F8FC00D7F8F430DB69E8
:102AA000B3F5004F40F00C81D7F8FC300022C7F896
:102AB000E830C7F8EC20D7E93A4522462B46911872
:102AC000B9655B41FB65D7E91623214612EB010886
:102AD000294643EB01094FF000024FF000034FEA93
:102AE000C90343EA58734FEAC80290469946234601
:102AF00018EB0303C7F8E0302B4649EB0303C7F894
:102B0000E430D7F8F4305B680022C7F8D830C7F853
:102B1000DC20D7E936120B46DB183B65134642EB47
:102B200003037B65D7E91423D7E93801FDF7A8FB38
:102B300002460B46614BA3FB02235B091C01D7F83D
:102B4000FC300022C7F8D030C7F8D420D7E9348948
:102B500042464B469118B9645B41FB64D7E91223A6
:102B6000414612EB010A494643EB010B4FF00002CC
:102B70004FF000034FEACB0343EA5A734FEACA020D
:102B800092469B4643461AEB0303C7F8C8304B46B0
:102B90004BEB0303C7F8CC30D7F8F4305B68002266
:102BA000C7F8C030C7F8C420D7E930120B46DB188D
:102BB0003B64134642EB03037B64D7E91023D7E958
:102BC0003201FDF75DFB02460B4611463B4BA3FB72
:102BD00001235B09642202FB03F3CB1ADB0003F140
:102BE0003202364BA3FB02235B095B0003F4F8734C
:102BF0001C44D7F8FC300022C7F8B830C7F8BC2016
:102C0000D7E92E8942464B469118B9635B41FB6375
:102C1000D7E90E2341465118396349464B417B633E
:102C20004FF000024FF00003D7E90CAB5946CB0040
:102C3000514643EA51735146CA00104619460346AD
:102C400042469B18C7F8B0304B460A4642EB030396
:102C5000C7F8B430D7F8F4305B680022C7F8A83062
:102C6000C7F8AC20D7E92A120B46DB18BB62134623
:102C700042EB0303FB62D7E90A23D7E92C01FDF7F6
:102C8000FFFA02460B460D4BA3FB02135B096421BE
:102C900001FB03F3D31ADB003233084AA2FB032300
:102CA0005B0903F00702D7F8F4301B6822449A60EE
:102CB00005E100BF00100140001401401F85EB51E9
:102CC000D7F8FC300022C7F8A030C7F8A420D7E915
:102CD000288942464B46911839625B417B62D7E9AD
:102CE000082341465418494643EB01054FF00002C2
:102CF0004FF00003EB0043EA5473E20014461D4614
:102D00004346E318C7F898304B4645EB0303C7F832
:102D10009C30D7F8F4305B680022C7F89030C7F8D1
:102D200094204FF000024FF00003D7E924452946D4
:102D30008B00214643EA917321468A00D7E9260198
:102D4000FDF79EFA02460B46604BA3FB02235B098C
:102D50001C01D7F8FC300022C7F88830C7F88C2057
:102D6000D7E9228942464B469118B9615B41FB6124
:102D7000D7E9062341465118396149464B417B61E9
:102D80004FF000024FF00003D7E904AB5946CB00E7
:102D9000514643EA51735146CA001046194603464C
:102DA00042469B18C7F880304B460A4642EB030365
:102DB000C7F88430D7F8F4305B680022BB67FA6745
:102DC0004FF000024FF00003D7E91E8949468B00FF
:102DD000414643EA917341468A00D7E92001FDF755
:102DE0004FFA02460B46394BA3FB02135B096421E1
:102DF00001FB03F3D31A1B013233344AA2FB032332
:102E00005B0903F0F0031C44D7F8FC3000223B6759
:102E10007A67D7E91C8942464B469118B9605B41F5
:102E2000FB60D7E9022341465118396049464B41BE
:102E30007B604FF000024FF00003D7E900AB59462A
:102E4000CB00514643EA51735146CA001046194619
:102E5000034642469B18BB664B460A4642EB0303B9
:102E6000FB66D7F8F4305B6800223B667A664FF069
:102E700000024FF00003D7E9188949468B0041460C
:102E800043EA917341468A00D7E91A01FDF7F8F940
:102E900002460B460D4BA3FB02135B09642101FBA9
:102EA00003F3D31A1B013233084AA2FB03235B0945
:102EB00003F00F02D7F8F4301B6822449A6000BF79
:102EC00007F58077BD46BDE8B08F00BF1F85EB5189
:102ED000014B1868704700BF0C00002070B50D4D05
:102EE0000D4C641BA4100026A64209D10B4D0C4CBE
:102EF00000F08EFC641BA4100026A64205D170BD14
:102F000055F8043B98470136EEE755F8043B9847DF
:102F10000136F2E7B0380008B0380008B0380008D1
:102F2000B438000802440346934200D1704703F8C6
:102F3000011BF9E70EB400B59CB01DAB02900690E2
:102F40006FF00041094807910491094953F8042B97
:102F500005910068019302A900F068F8029B002225
:102F60001A701CB05DF804EB03B070470C00002031
:102F70000802FFFF2DE9F0478E689E4282460C460C
:102F800090461F4638D88A8912F4906F32D025684F
:102F90000969A5EB0109656905EB450505EBD575E3
:102FA00001334B446D109D4238BF1D46530531D54A
:102FB000294600F063FB064650B90C23CAF80030DE
:102FC000A38943F04003A3814FF0FF30BDE8F087B1
:102FD00021694A4600F0BEFAA38923F4906343F0C6
:102FE0008003A381266165614E44A5EB0905266037
:102FF000A5603E46BE4200D93E4620683246414664
:1030000000F0B6FAA3689B1BA360236833442360D7
:103010000020DBE72A4600F0A5FB06460028E1D1A8
:103020002169504600F0BEFAC7E700002DE9F04FD5
:1030300098468B891B069DB007460D4614460ED553
:103040000B6963B9402100F019FB2860286120B9A1
:103050000C233B604FF0FF30D1E040236B61002335
:10306000099320238DF82930CDF80C803023DFF828
:10307000A8818DF82A304FF0010923469A4613F8AB
:10308000012B0AB1252AF9D1BAEB040B0BD05B4610
:10309000224629463846FFF76DFF013000F0AA802E
:1030A000099A5A4409929AF80030002B00F0A28045
:1030B00000234FF0FF32CDE905230AF1010A049302
:1030C00007938DF853301A935446052214F8011BC8
:1030D0005148FDF785F8049AD8B9D00644BF20239B
:1030E0008DF85330110744BF2B238DF853309AF8D5
:1030F00000302A2B15D0079A544600204FF00A0CB6
:10310000214611F8013B303B092B4ED9B0B1079253
:1031100014E0A0EB080309FA03F313430493A24657
:10312000D2E7039B191D1B680391002BBBBF5B42B9
:1031300042F0020207930793B8BF049223782E2B24
:103140000CD163782A2B35D1039B1A1D1B6803927F
:10315000002BB8BF4FF0FF3302340593DFF8C8A04F
:10316000217803225046FDF73BF840B14023A0EB05
:103170000A0003FA00F0049B03430134049314F89B
:10318000011B26488DF828100622FDF729F8002893
:1031900038D0234B1BBB039B073323F007030833B3
:1031A0000393099B3344099367E70CFB02320C46F7
:1031B0000120A5E700230134059319464FF00A0CBE
:1031C000204610F8012B303A092A03D9002BC5D02C
:1031D0000591C3E70CFB012104460123F0E703AB93
:1031E00000932A460F4B04A93846AFF30080421CD7
:1031F0000646D6D1AB895B063FF52CAF09981DB0CA
:10320000BDE8F08F03AB00932A46064B04A938466D
:1032100000F07AF8EBE700BF743800087E38000849
:1032200000000000752F00087A3800082DE9F047EB
:10323000164699468A680B69DDF820809342B8BF2C
:103240001346336091F8432007460C460AB1013318
:1032500033602368990642BF3368023333602568C0
:1032600015F0060506D104F1190AE36832689B1AC5
:10327000AB4226DC94F84320131E226818BF0123BA
:1032800092062BD404F1430249463846C047013028
:103290001ED02368E568326803F00603042B08BFDC
:1032A000AD1AA36822690CBF25EAE5750025934293
:1032B000C4BF9B1AED1800261A34B5421AD100205B
:1032C00008E00123524649463846C047013003D141
:1032D0004FF0FF30BDE8F0870135C6E7E1185A1C12
:1032E000302081F84300224494F8451082F84310BE
:1032F0000233C7E70123224649463846C04701301A
:10330000E6D00136D9E700002DE9FF470F7E0C9D7E
:10331000782F914680460C469A4601F1430207D821
:10332000622F0AD8002F00F0D880582F00F0A38019
:1033300004F1420584F842703AE0A7F16303152BCB
:10334000F6D801A151F823F0A1330008B5330008E5
:1033500031330008313300083133000831330008BD
:10336000B533000831330008313300083133000829
:1033700031330008C1340008E5330008A3340008E5
:103380003133000831330008E334000831330008DA
:10339000E53300083133000831330008AB3400084E
:1033A0002B681A1D1B682A6004F1420584F842301C
:1033B0000123A3E020682968060601F104030AD569
:1033C0000E682B60002E03DA2D23764284F84330FA
:1033D0005E480A2319E00E682B6010F0400F18BFFA
:1033E00036B2EFE72B682068191D2960010601D568
:1033F0001E6802E04606FBD51E8854486F2F0CBF9E
:1034000008230A23002184F843106568A560002D75
:10341000A2BF216821F0040121600EB9002D4DD01A
:103420001546B6FBF3F103FB1167C75D05F8017D97
:103430003746BB420E46F4D9082B0BD12368DE0772
:1034400008D5236961689942DEBF302305F8013C45
:1034500005F1FF35521B2261CDF800A04B4603AAAF
:1034600021464046FFF7E2FE01304CD14FF0FF30DD
:1034700004B0BDE8F087354881F8457029682368B5
:1034800051F8046B29601D0614D5DF0744BF43F0D3
:10349000200323601EB9236823F020032360102338
:1034A000B0E7236843F0200323607823284884F89A
:1034B0004530E3E7590648BFB6B2E6E71546BBE735
:1034C0002B6826686169181D286035061B6801D5C0
:1034D000196002E07006FBD51980002323611546B0
:1034E000BAE72B681A1D2A601D6862680021284609
:1034F000FCF776FE08B1401B60606368236100231F
:1035000084F84330A8E723692A4649464046D04715
:103510000130ABD023689B0713D4E068039B98422B
:10352000B8BF1846A4E70123324649464046D04773
:1035300001309BD00135E36803995B1AAB42F2DCA2
:10354000EBE7002504F11906F5E700BF8538000810
:10355000963800080A44914200F1FF3300D17047C9
:1035600010B511F8014B03F8014F9142F9D110BD8C
:10357000884210B501EB020402D98442234607D8E1
:10358000431EA14208D011F8012B03F8012FF8E7E0
:10359000024401468A4200D110BD13F8014D02F8E1
:1035A000014DF7E737B5002944D051F8043C0190AC
:1035B000002BA1F10404B8BFE41800F013F91E4A6F
:1035C0000198136833B96360146003B0BDE83040FC
:1035D00000F00EB9A34208D9256861198B4201BFDA
:1035E00019685B6849192160EDE71A465B680BB101
:1035F000A342FAD911685518A5420BD12468214479
:103600005418A3421160E0D11C685B6853602144E8
:103610001160DAE702D90C230360D6E72568611947
:103620008B4204BF19685B68636004BF491921605D
:103630005460CAE703B030BD3001002070B50E4EB3
:103640000C463168054611B900F0BCF830602146DF
:10365000284600F0B7F8431C0AD0C41C24F0030429
:10366000A04207D0211A284600F0ACF8013001D161
:103670004FF0FF34204670BD340100202DE9F041A9
:10368000CD1C25F0030508350C2D38BF0C25002D69
:10369000074601DBA94205D90C233B6000263046D2
:1036A000BDE8F0812E4E00F09DF833681C4634BB17
:1036B00029463846FFF7C2FF431C04464DD1346803
:1036C0002646002E40D123683146384604EB0308D5
:1036D00000F078F880453AD1216803356D1A25F05D
:1036E000030508350C2D38BF0C2529463846FFF751
:1036F000A5FF01302BD023682B4423600EE0226805
:10370000521B1ED40B2A16D96119A342256018BF7B
:103710005960636808BF316062514B60384604F1FC
:103720000B0600F065F826F00706231DF21AB6D046
:103730009B1BA350B3E76268A3420CBF32605A6080
:10374000ECE723466468B2E734467668B9E70C23B1
:103750003B60384600F04CF8A1E72560DEE700BF8B
:10376000300100202DE9F041804614460E4621B973
:10377000BDE8F0411146FFF781BF2AB9FFF712FFFC
:1037800025462846BDE8F08100F038F88442074617
:1037900002D8B4EB500F12D821464046FFF76EFF17
:1037A00005460028EDD0BC422246314628BF3A46A5
:1037B000FFF7D0FE31464046FFF7F4FEE1E735461D
:1037C000DFE7000038B5064D0023044608462B60AD
:1037D000FDF714FA431C02D12B6803B1236038BDF6
:1037E00038010020014800F011B800BF3C01002062
:1037F000014800F00CB800BF3C01002051F8043C27
:10380000181F002BBCBF0B58C0187047704770477B
:10381000F8B500BFF8BC08BC9E467047F8B500BFBD
:08382000F8BC08BC9E4670478D
:1038280053504920546573740D0A00005374617431
:1038380075733A20307802780D0A000030780278E3
:10384800203078027820307802780D0A00030206CA
:103858000500000000000000000000000102030451
:10386800060708090000000001020304232D302B7D
:103878002000686C4C006566674546470030313269
:1038880033343536373839414243444546003031C0
:10389800323334353637383961626364656600001F
:0838A80008CAFF7F01000000C7
:0438B000C501000846
:0438B400A101000866
:1038B8000024F400100000000100000010000020A7
:1038C80000000000000000000000000000000000F0
:1038D80000000000000000000000000000000000E0
:1038E80000000000000000000000000000000000D0
:1038F80000000000000000000000000000000000C0
:1039080000000000000000000000000000000000AF
:10391800000000000000000000000000000000009F
:0400000508000C8D56
:00000001FF
